:100000000C94BE000C94D3000C94D3000C94D30039
:100010000C94D3000C94D3000C94D3000C94D30014
:100020000C94D3000C94D3000C94D3000C94D30004
:100030000C94D3000C94D3000C94D3000C94D300F4
:100040000C94D3000C94D3000C94D3000C94D300E4
:100050000C94D3000C94D3000C94D3000C94D300D4
:100060000C94D3000C94D3007C0146014601460158
:100070004601460146014601460146014601460148
:1000800046015C015E0146017E0148014A014C01C6
:100090004E01500152015401560158015A014601C6
:1000A00046014601460146014601600146014601FE
:1000B00046014601620146016401460146016601AE
:1000C00046016801460146016A01460146016C018C
:1000D0006E014601460146014601460146014601C0
:1000E00046014601460146014601460170014601AE
:1000F000720146014601740146014601460146016E
:100100004601460146017601460146014601780155
:100110004601460146014601460146017A0119029F
:10012000DB01DD01DF01E101E301E501E701E901B7
:10013000EB01ED01EF01F101F301F501F701F90127
:10014000FB01FD01FF010102030205020702090292
:100150000B020D020F02110213021502170205A86D
:100160004CCDB2D44EB93836A9020C50B99186881C
:10017000083CA6AAAA2ABE000000803F11241FBE88
:10018000CFEFD8E0DEBFCDBF11E0A0E0B1E0E4E406
:10019000F5E102C005900D92A23BB107D9F70E948C
:1001A0001F030C94A00A0C940000FC018FE097E25E
:1001B0000197F1F700C000008081806180838FE0AB
:1001C00097E20197F1F700C00000908180E1892754
:1001D00080838FE097E20197F1F700C00000089557
:1001E000CF93DF93EC0188818C608883CE010E94DD
:1001F000D50098818CE089278883CE010E94D500A4
:10020000DF91CF9108950F931F93CF93DF93EC016C
:10021000088112E0188385E290E00E94D5001883DF
:1002200085E290E00E94D50088E0888385E290E036
:100230000E94D500188285E290E00E94D5008EE0F1
:10024000888385E290E00E94D500188285E290E0E4
:100250000E94D50086E0888385E290E00E94D50068
:100260000883DF91CF911F910F9108950F931F93F2
:10027000CF93DF93EC01862F90E0FC01B097EB3534
:10028000F10520F4EC5CFF4F0C948B0A10E037C0B2
:1002900011E335C012E333C013E331C014E32FC0C0
:1002A00015E32DC016E32BC017E329C018E327C0C0
:1002B00019E325C01AE323C01DE221C01EE21FC0BE
:1002C00011E41DC016E41BC018E419C01BE417C0DC
:1002D0001DE415C010E513C013E511C014E50FC0EF
:1002E00012E60DC014E60BC017E609C01FE607C0F2
:1002F00013E705C01AE703C010E201C010E38881CC
:100300008062012F02950F70802B8883CE010E949E
:10031000D500888180271F70812B8883CE010E94A1
:10032000D5008881182780E218271883DF91CF91A4
:100330001F910F910895EF92FF920F931F93CF9308
:10034000DF937C01FB01C0E0D0E009C08F010F5FAB
:100350001F4F6081C7010E9436012196F801C3300A
:10036000D105A4F3DF91CF911F910F91FF90EF90F2
:1003700008950F931F93CF93DF938C01EB0104C07B
:100380002196C8010E94360168816111F9CFDF9181
:10039000CF911F910F9108950F931F93CF93DF93E8
:1003A000EC016032710528F4FB01E157FF4F0C941A
:1003B0008B0A10E03FC011E53DC012E53BC013E5DC
:1003C00039C014E537C015E535C016E533C017E56B
:1003D00031C018E52FC019E52DC01AE82BC01BE865
:1003E00029C01CE827C01DE825C01EE823C01FE85F
:1003F00021C010EC1FC011EC1DC012EC1BC013EC8F
:1004000019C014EC17C015EC15C016EC13C017EC8E
:1004100011C018EC0FC019EC0DC01AEC0BC01BEC8E
:1004200009C01CEC07C01DEC05C01EEC03C01FEC8E
:1004300001C010E888818F7D012F02950F70802BFD
:100440008883CE010E94D500888180271F70812B70
:100450008883CE010E94D500888118271883DF91F8
:10046000CF911F910F910895AC0180E006C0FB0170
:10047000E80FF11D90E390838F5F8330C0F3FB01A1
:1004800032969A01ADECBCEC0E94910A9695879544
:1004900096958795969587959C01220F331F880F17
:1004A000991F880F991F880F991F820F931F9A0118
:1004B000281B390BC9019081890F80839A010E9402
:1004C000910AAC015695479556954795569547958F
:1004D000319741155105A9F608950F931F93CF93B6
:1004E000DF9300D01F92CDB7DEB78C01862FBE01FF
:1004F0006F5F7F4F90E00E94340264E170E0C801BA
:100500000E94CC01BE016F5F7F4FC8010E94B901FC
:100510000F900F900F90DF91CF911F910F91089541
:10052000DF92EF92FF920F931F93CF93DF937C01A3
:10053000D62E65E170E00E94CC01C8E0D0E01FC07B
:100540008E01015011098D2D90E0002E02C095956D
:1005500087950A94E2F780FF05C061E3C7010E9416
:10056000360104C060E3C7010E943601C0FF06C027
:10057000219721F06EE2C7010E943601E801209721
:10058000F9F6DF91CF911F910F91FF90EF90DF90DF
:100590000895CF93DF93EC018881807F8883CE011B
:1005A0000E94D50088818C608883CE010E94D5008E
:1005B00098818CE089278883DF91CF910895EF920D
:1005C000FF920F931F93CF93DF9300D01F92CDB76D
:1005D000DEB78C017A0180E090E00E94DF0820E025
:1005E00030EC4FE754E40E943E0820E030EC40E657
:1005F00054E40E94B10920E030E048EC52E40E944B
:10060000CD07F70160837183828393830E94B008D2
:10061000DC01CB01BE016F5F7F4F0E943402BE013F
:100620006F5F7F4FC8010E949B010F900F900F904A
:10063000DF91CF911F910F91FF90EF900895CF938D
:10064000DF93CDB7DEB72E970FB6F894DEBF0FBE9F
:10065000CDBF8FEF84B98AB980E480937C0084EEAB
:1006600080937A0010927B0083E080937E0085E285
:1006700090E00E94030185B1806485B919821A82D5
:100680001B821C8285E290E00E94C902612C712CC1
:10069000C12CD12CE12CF12C00E010E0812C912C0C
:1006A000212C312C412C1D821E821F821886512C38
:1006B000A12CB12C86B1807190E021E030E041E0C6
:1006C0002416310411F020E030E0822B932B892B8B
:1006D00009F437C1ECE7F0E08081816080832AC1B2
:1006E00085B18F7385B985B1806485B9EAE7F0E09B
:1006F00080818064808380917800909179002EC001
:1007000060E070E085E290E00E94CC0160E071E082
:1007100085E290E00E94B90185E290E00E94F0003D
:1007200061E171E085E290E00E94B901EAE7F0E062
:1007300080818064808380917800909179003399E2
:1007400002C026B103C088248394912C01E010E0FC
:10075000E12CF12CC12CD12C612C712C339906C0C9
:10076000329904C08F3F910559F250F28FE097E221
:100770000197F1F700C00000EAE7F0E080818064B3
:10078000808380917800909179002FC060E070E0C4
:1007900085E290E00E94CC0162E271E085E290E0A7
:1007A0000E94B90185E290E00E94F00061E171E0F1
:1007B00085E290E00E94B901EAE7F0E08081806480
:1007C00080838091780090917900339902C026B19E
:1007D00003C088248394912C00E010E0EE24E3947D
:1007E000F12CC12CD12C612C712C339906C032997B
:1007F00004C09A958F3F910548F28FE097E20197E8
:10080000F1F700C00000EAE7F0E0808180648083B7
:1008100080917800909179002FC060E070E085E2CF
:1008200090E00E94CC0163E371E085E290E00E94D9
:10083000B90185E290E00E94F00064E471E085E295
:1008400090E00E94B901EAE7F0E080818064808353
:100850008091780090917900339902C026B103C04D
:1008600088248394912C00E010E0E12CF12CCC241E
:10087000C394D12C612C712C339907C0329905C0D7
:100880008F5F91408F3F910540F28FE097E2019793
:10089000F1F700C00000EAE7F0E080818064808327
:1008A00080917800909179002FC060E070E085E23F
:1008B00090E00E94CC0165E571E085E290E00E9445
:1008C000B90185E290E00E94F00064E471E085E205
:1008D00090E00E94B901EAE7F0E0808180648083C3
:1008E0008091780090917900339902C026B103C0BD
:1008F00088248394912C00E010E0E12CF12CC12C91
:10090000D12C66246394712C339905C0329903C0AD
:100910008E3F924050F68FE097E20197F1F700C0CA
:100920000000EAE7F0E0808180648083A090780096
:10093000B0907900339904C0329BD2CE512C01C0C3
:10094000512C86B1887090E021E030E041E08416BF
:10095000910411F020E030E0822B932B892B09F4D5
:100960009EC185B18F7385B985B1806485B98EC10B
:10097000511030C060E070E085E290E00E94CC0150
:1009800066E671E085E290E00E94B90185E290E0C0
:100990000E94F00067E771E085E290E00E94B901F3
:1009A000EAE7F0E0808180648083A0907800B090D6
:1009B00079006BE070E085E290E00E94CC01AE012E
:1009C0004F5F5F4FB50185E290E00E94DF02552442
:1009D00053941BC0EAE7F0E08081806480838090BC
:1009E000780090907900A814B90479F06BE070E079
:1009F00085E290E00E94CC01AE014F5F5F4FB401F1
:100A000085E290E00E94DF025401349902C086B171
:100A100003C022242394312C349906C0329904C097
:100A20000130110509F4A4CF8FE097E20197F1F7A7
:100A300000C0000054C0511030C060E070E085E29A
:100A400090E00E94CC016FE771E085E290E00E94A7
:100A5000B90185E290E00E94F00067E771E085E26D
:100A600090E00E94B901EAE7F0E080818064808331
:100A7000A0907800B09079006BE070E085E290E0A3
:100A80000E94CC01AE014F5F5F4FB50185E290E05F
:100A90000E94DF02552453941BC0EAE7F0E08081F6
:100AA000806480838090780090907900A814B904C5
:100AB00079F06BE070E085E290E00E94CC01AE013D
:100AC0004F5F5F4FB40185E290E00E94DF02540166
:100AD000349902C086B103C022242394312C349966
:100AE00007C0329905C091E0E916F10409F4A3CFDB
:100AF0008FE097E20197F1F700C0000054C0511059
:100B000030C060E070E085E290E00E94CC0160E9D6
:100B100071E085E290E00E94B90185E290E00E94D8
:100B2000F00064E471E085E290E00E94B901EAE738
:100B3000F0E0808180648083A0907800B09079009C
:100B40006BE070E085E290E00E94CC01AE014F5F67
:100B50005F4FB50185E290E00E94DF025524539477
:100B60001BC0EAE7F0E08081806480838090780099
:100B700090907900A814B90479F06BE070E085E2F8
:100B800090E00E94CC01AE014F5F5F4FB40185E25F
:100B900090E00E94DF025401349902C086B103C084
:100BA00022242394312C349907C0329905C091E056
:100BB000C916D10409F4A3CF8FE097E20197F1F7AA
:100BC00000C0000054C0511030C060E070E085E209
:100BD00090E00E94CC0161EA71E085E290E00E9421
:100BE000B90185E290E00E94F00064E471E085E2E2
:100BF00090E00E94B901EAE7F0E0808180648083A0
:100C0000A0907800B09079006BE070E085E290E011
:100C10000E94CC01AE014F5F5F4FB50185E290E0CD
:100C20000E94DF02552453941BC0EAE7F0E0808164
:100C3000806480838090780090907900A814B90433
:100C400079F06BE070E085E290E00E94CC01AE01AB
:100C50004F5F5F4FB40185E290E00E94DF025401D4
:100C6000349902C086B103C022242394312C3499D4
:100C700007C0329905C091E06916710409F4A3CF49
:100C80008FE097E20197F1F700C00000349905C0AA
:100C9000329BC2CE812C912C02C0812C912C01154B
:100CA000110551F4E114F10439F4C114D10421F413
:100CB0006114710409F4FECC80917C0080FF06C0B1
:100CC000ECE7F0E0908181E089278083EAE7F0E0BB
:100CD000808180648083A0907800B0907900B69481
:100CE000A794B694A79401151105A9F12BED3FE047
:100CF00049EC50E469817A818B819C810E94B10921
:100D00009B01AC016D817E818F8198850E94B10924
:100D10000E94390869877A878B879C87B50180E0B4
:100D200090E00E94DF0820E030E040E05FE30E94B6
:100D3000B1099B01AC0169857A858B859C850E94F0
:100D4000B10920E030E04EEF52E40E94CD070E944E
:100D5000B008462ED5C0E114F10499F12BED3FE027
:100D600049EC50E46D817E818F8198850E94B109A4
:100D700069877A878B879C87B50180E090E00E9425
:100D8000DF0829813A814B815C810E94CD079B015C
:100D9000AC0169857A858B859C850E94B1090E948A
:100DA000390820E030E04EEF52E40E94B10920E023
:100DB00030E04EEF52E40E94CD070E94B008462E6C
:100DC0009FC0C114D104A9F12BED3FE049EC50E4E0
:100DD00069817A818B819C810E94B1099B01AC0160
:100DE0006D817E818F8198850E94B1090E943908AA
:100DF00069877A878B879C87B50180E090E00E94A5
:100E0000DF0820E030E040E05FE30E94B1099B0191
:100E1000AC0169857A858B859C850E94B10920E0AB
:100E200030E04EEF52E40E94CD070E94B008462EFB
:100E300067C06114710409F052C062C081E090E0A3
:100E4000042C02C0880F991F0A94E2F78A219B2183
:100E5000892B09F12BED3FE049E451E46D817E815E
:100E60008F8198850E94B10929813A814B815C81EB
:100E70000E94B1090E94390820E030E04EEF52E4B0
:100E80000E94B10920E030E04EEF52E40E94CD070D
:100E90000E94B00820C02BED3FE049EC50E46D818A
:100EA0007E818F8198850E94B10929813A814B8189
:100EB0005C810E94B1090E94390820E030E04EEFC9
:100EC00052E40E94B10920E030E04EEF52E40E946B
:100ED000CD070E94B0089FEF491A590A08C01A8628
:100EE0001986642D1E870D87152D412C512C28E065
:100EF0004216510408F4A2CF512E462E0D851E85B0
:100F00004BB885B18F7385B985B1806885B9298162
:100F10003A814B815C816D817E818F8198850E94B1
:100F2000B10969877A878B879C8727E137EB41E591
:100F300059E36D817E818F8198850E94CD076D83F5
:100F40007E838F83988720E030E040E85FE3698507
:100F50007A858B859C850E94AC09882324F01D82AC
:100F60001E821F8218860115110519F4E114F1047F
:100F700031F0642D85E290E00E946D029BCBC1149C
:100F8000D10421F46114710409F494CB642D85E239
:100F900090E00E9490028ECB5058BB27AA270E9457
:100FA000E4070C945E090E94250938F00E942C0980
:100FB00020F039F49F3F19F426F40C9422090EF422
:100FC000E095E7FB0C941C09E92F0E94830958F374
:100FD000BA17620773078407950720F079F4A6F51E
:100FE0000C94A5090EF4E0950B2EBA2FA02D0B0141
:100FF000B90190010C01CA01A0011124FF27591B5E
:1010000099F0593F50F4503E68F11A16F040A22F63
:10101000232F342F4427585FF3CF469537952795D4
:10102000A795F0405395C9F77EF41F16BA0B620BD3
:10103000730B840BBAF09150A1F0FF0FBB1F661F1A
:10104000771F881FC2F70EC0BA0F621F731F841F5D
:1010500048F4879577956795B795F7959E3F08F083
:10106000B0CF9395880F08F09927EE0F9795879545
:1010700008950E943509E3950C946F090E94520867
:101080000C945E090E942C0958F00E94250940F03A
:1010900029F45F3F29F00C941C0951110C94A60906
:1010A0000C9422090E94830968F39923B1F3552314
:1010B00091F3951B550BBB27AA276217730784076B
:1010C00038F09F5F5F4F220F331F441FAA1FA9F301
:1010D00035D00E2E3AF0E0E832D091505040E695EF
:1010E000001CCAF72BD0FE2F29D0660F771F881F50
:1010F000BB1F261737074807AB07B0E809F0BB0B43
:10110000802DBF01FF2793585F4F3AF09E3F510556
:1011100078F00C941C090C94A6095F3FE4F3983E08
:10112000D4F3869577956795B795F7959F5FC9F73F
:10113000880F911D9695879597F90895E1E0660FC0
:10114000771F881FBB1F621773078407BA0720F039
:10115000621B730B840BBA0BEE1F88F7E0950895A2
:101160000E948B0988F09F5798F0B92F9927B751A3
:10117000B0F0E1F0660F771F881F991F1AF0BA953B
:10118000C9F714C0B13091F00E94A509B1E00895EB
:101190000C94A509672F782F8827B85F39F0B93FDD
:1011A000CCF3869577956795B395D9F73EF49095EE
:1011B0008095709561957F4F8F4F9F4F0895E8946C
:1011C00009C097FB3EF490958095709561957F4F8F
:1011D0008F4F9F4F9923A9F0F92F96E9BB2793953D
:1011E000F695879577956795B795F111F8CFFAF44D
:1011F000BB0F11F460FF1BC06F5F7F4F8F4F9F4F7E
:1012000016C0882311F096E911C0772321F09EE8DB
:10121000872F762F05C0662371F096E8862F70E041
:1012200060E02AF09A95660F771F881FDAF7880F1B
:101230009695879597F9089597F99F6780E870E0EC
:1012400060E008959FEF80EC089500240A9416163C
:10125000170618060906089500240A9412161306A4
:101260001406050608950C9422090E948B09D8F3F0
:10127000E894E0E0BB279F57F0F02AED3FE049EC0F
:1012800006C0EE0FBB0F661F771F881F28F0B23A0B
:1012900062077307840728F0B25A620B730B840B42
:1012A000E3959A9572F7803830F49A95BB0F661FD4
:1012B000771F881FD2F790480C94440A092E039494
:1012C000000C11F4882352F0BB0F40F4BF2B11F433
:1012D00060FF04C06F5F7F4F8F4F9F4F0895EF9364
:1012E000E0FF07C0A2EA2AED3FE049EC5FEB0E9475
:1012F000E4070E945E090F90039401FC9058EEE50C
:10130000F1E00C94500A57FD9058440F551F59F0C6
:101310005F3F71F04795880F97FB991F61F09F3FE2
:1013200079F087950895121613061406551FF2CF0B
:101330004695F1DF08C0161617061806991FF1CF5B
:1013400086957105610508940895E894BB27662782
:101350007727CB0197F908950E941E0A08F48FEFB2
:1013600008950E94C4090C945E090E94250938F072
:101370000E942C0920F0952311F00C941C090C9468
:10138000220911240C94A6090E94830970F3959FE9
:10139000C1F3950F50E0551F629FF001729FBB276C
:1013A000F00DB11D639FAA27F00DB11DAA1F649F08
:1013B0006627B00DA11D661F829F2227B00DA11DBB
:1013C000621F739FB00DA11D621F839FA00D611D41
:1013D000221F749F3327A00D611D231F849F600D62
:1013E000211D822F762F6A2F11249F5750409AF08B
:1013F000F1F088234AF0EE0FFF1FBB1F661F771F17
:10140000881F91505040A9F79E3F510580F00C94E1
:101410001C090C94A6095F3FE4F3983ED4F386952B
:1014200077956795B795F795E7959F5FC1F7FE2B81
:10143000880F911D9695879597F90895990F000843
:10144000550FAA0BE0E8FEEF16161706E807F90796
:10145000C0F012161306E407F50798F0621B730B31
:10146000840B950B39F40A2661F0232B242B252BB2
:1014700021F408950A2609F4A140A6958FEF811D55
:10148000811D08959F3F31F0915020F48795779505
:101490006795B795880F911D9695879597F908954B
:1014A0009F938F937F936F93FF93EF939B01AC0177
:1014B0000E94B109EF91FF910E94640A2F913F9120
:1014C0004F915F910C94B109DF93CF931F930F93CA
:1014D000FF92EF92DF927B018C01689406C0DA2EB6
:1014E000EF010E94C409FE01E894A5912591359170
:1014F00045915591A6F3EF010E94E407FE01970183
:10150000A801DA9469F7DF90EF90FF900F911F9197
:10151000CF91DF910895EE0FFF1F0590F491E02D1C
:101520000994A29FB001B39FC001A39F700D811DBC
:101530001124911DB29F700D811D1124911D0895DC
:04154000F894FFCF4D
:101544004D6F643A20414D2020463A2D2D2D487A86
:10155400004D73673A2D2D2D20202020202020209F
:1015640020004D6F643A20464D2020463A2D2D2D03
:10157400487A004D6F643A2041534B20543A2D2D44
:101584002D6273004D73673A202D2D2E2D2D2E2D97
:101594002D2E2D2D004D6F643A2046534B20543A86
:1015A4002D2D2D6273004D6F643A20414D20205043
:1015B4003A202020487A004D73673A2D2D2D004D96
:1015C4006F643A20464D2020503A202020487A006B
:1015D4004D6F643A2041534B20503A202020487AE2
:1015E400004D6F643A2046534B20503A2020204847
:0215F4007A007B
:00000001FF
