:100000000C9443000C944D000C944D000C944D0046
:100010000C944D000C944D000C944D000C944D002C
:100020000C944D000C944D000C944D000C944D001C
:100030000C944D000C944D000C944D000C944D000C
:100040000C944D000C944D000C944D000C944D00FC
:100050000C944D000C944D000C944D000C944D00EC
:100060000C944D000C944D0005A84CCDB2D44EB963
:100070003836A9020C50B9918688083CA6AAAA2A4B
:10008000BE000000803F11241FBECFEFD8E0DEBFCE
:10009000CDBF0E944F000C94AA030C940000CF9295
:1000A000DF92EF92FF92CF93DF93CDB7DEB76B97DE
:1000B0000FB6F894DEBF0FBECDBF8AE290E02FEFFF
:1000C000FC0120838CE790E020E4FC0120838AE798
:1000D00090E023EEFC0120838BE790E0FC0110828E
:1000E0008EE790E023E0FC01208387E197EBA1E518
:1000F000B9E38D839E83AF83B88719821A821B82EE
:100100001C8219861A861B861C8680E090E0AAEF66
:10011000B3E48D879E87AF87B88B8FE7898B8FE796
:100120008A8B1B8A1D8A1C8A1F8A1E8A188E198E2A
:100130001A8E1B8E85E290E0FC0110828AE790E027
:100140002AE730E0F90120812064FC0120830000CF
:100150008AE790E0FC018081882F90E080719927E8
:10016000892BB1F38AE790E02AE730E0F90120819A
:100170002061FC01208388E790E0FC01808191816F
:100180009D8B8C8B8C899D89969587959695879567
:100190009D8B8C8B2BED3FE049EC50E46D857E858B
:1001A0008F8598890E94D002DC01CB0129813A8198
:1001B0004B815C81BC01CD010E94D002DC01CB01EE
:1001C000BC01CD010E94CA01DC01CB01888F998F4F
:1001D000AA8FBB8F8C899D89CC01A0E0B0E0BC01C7
:1001E000CD010E94FE01DC01CB0120E030E040E0C7
:1001F0005FE3BC01CD010E94D002DC01CB01288D60
:10020000398D4A8D5B8DBC01CD010E94D002DC018D
:10021000CB016C017D018989882F90E0092E000CAB
:10022000AA0BBB0BBC01CD010E940002DC01CB017B
:100230009C01AD01C701B6010E945E01DC01CB014A
:10024000BC01CD010E94CF01DC01CB018B8B8BE285
:1002500090E02B89FC01208329813A814B815C81CC
:100260006D857E858F8598890E94D002DC01CB0147
:1002700089879A87AB87BC872D813E814F815885BE
:1002800069817A818B819C810E945E01DC01CB01B6
:1002900089839A83AB83BC8320E030E040E85FE34E
:1002A00069857A858B859C850E94CB02882324F002
:1002B00019821A821B821C8241CF5058BB27AA2761
:1002C0000E9475010C947D020E94440238F00E9445
:1002D0004B0220F039F49F3F19F426F40C944102AC
:1002E0000EF4E095E7FB0C943B02E92F0E94A2027A
:1002F00058F3BA17620773078407950720F079F45B
:10030000A6F50C94C4020EF4E0950B2EBA2FA02D86
:100310000B01B90190010C01CA01A0011124FF27B2
:10032000591B99F0593F50F4503E68F11A16F040AD
:10033000A22F232F342F4427585FF3CF46953795AC
:100340002795A795F0405395C9F77EF41F16BA0B71
:10035000620B730B840BBAF09150A1F0FF0FBB1F1F
:10036000661F771F881FC2F70EC0BA0F621F731F68
:10037000841F48F4879577956795B795F7959E3FC5
:1003800008F0B0CF9395880F08F09927EE0F979556
:10039000879508950E945402E3950C948E020E9462
:1003A000AA0288F09F5798F0B92F9927B751B0F05B
:1003B000E1F0660F771F881F991F1AF0BA95C9F7E9
:1003C00014C0B13091F00E94C402B1E008950C94C1
:1003D000C402672F782F8827B85F39F0B93FCCF374
:1003E000869577956795B395D9F73EF49095809566
:1003F000709561957F4F8F4F9F4F0895E89409C086
:1004000097FB3EF490958095709561957F4F8F4F47
:100410009F4F9923A9F0F92F96E9BB279395F6955D
:10042000879577956795B795F111F8CFFAF4BB0FDB
:1004300011F460FF1BC06F5F7F4F8F4F9F4F16C03F
:10044000882311F096E911C0772321F09EE8872FC9
:10045000762F05C0662371F096E8862F70E060E085
:100460002AF09A95660F771F881FDAF7880F9695FE
:10047000879597F9089597F99F6780E870E060E0A5
:1004800008959FEF80EC089500240A94161617062D
:1004900018060906089500240A9412161306140675
:1004A000050608950C9441020E94AA02D8F3E8942C
:1004B000E0E0BB279F57F0F02AED3FE049EC06C093
:1004C000EE0FBB0F661F771F881F28F0B23A620736
:1004D0007307840728F0B25A620B730B840BE39501
:1004E0009A9572F7803830F49A95BB0F661F771F84
:1004F000881FD2F790480C946303092E0394000CD4
:1005000011F4882352F0BB0F40F4BF2B11F460FFAD
:1005100004C06F5F7F4F8F4F9F4F0895EF93E0FFB1
:1005200007C0A2EA2AED3FE049EC5FEB0E947501AB
:100530000E947D020F90039401FC9058E8E6F0E0E1
:100540000C946F0357FD9058440F551F59F05F3FAF
:1005500071F04795880F97FB991F61F09F3F79F0E5
:1005600087950895121613061406551FF2CF469567
:10057000F1DF08C0161617061806991FF1CF8695E9
:100580007105610508940895E894BB2766277727CD
:10059000CB0197F908950E943D0308F48FEF089569
:1005A0000E94E3020C947D020E94440238F00E94F3
:1005B0004B0220F0952311F00C943B020C94410265
:1005C00011240C94C5020E94A20270F3959FC1F3FE
:1005D000950F50E0551F629FF001729FBB27F00DF1
:1005E000B11D639FAA27F00DB11DAA1F649F662746
:1005F000B00DA11D661F829F2227B00DA11D621F95
:10060000739FB00DA11D621F839FA00D611D221F4E
:10061000749F3327A00D611D231F849F600D211D32
:10062000822F762F6A2F11249F5750409AF0F1F0B5
:1006300088234AF0EE0FFF1FBB1F661F771F881F1E
:1006400091505040A9F79E3F510580F00C943B0219
:100650000C94C5025F3FE4F3983ED4F386957795FA
:100660006795B795F795E7959F5FC1F7FE2B880FC4
:10067000911D9695879597F90895990F0008550F44
:10068000AA0BE0E8FEEF16161706E807F907C0F018
:1006900012161306E407F50798F0621B730B840B20
:1006A000950B39F40A2661F0232B242B252B21F4FA
:1006B00008950A2609F4A140A6958FEF811D811D9A
:1006C00008959F3F31F0915020F487957795679575
:1006D000B795880F911D9695879597F908959F93E3
:1006E0008F937F936F93FF93EF939B01AC010E94D5
:1006F000D002EF91FF910E9483032F913F914F9180
:100700005F910C94D002DF93CF931F930F93FF92CE
:10071000EF92DF927B018C01689406C0DA2EEF0124
:100720000E94E302FE01E894A5912591359145913F
:100730005591A6F3EF010E947501FE019701A801F2
:10074000DA9469F7DF90EF90FF900F911F91CF91AE
:08075000DF910895F894FFCF3A
:00000001FF
